:020000040020DA
:10000000D0040020DD012000BB18200027182000AC
:10001000B9182000E9022000D91B200000000000D0
:10002000000000000000000000000000BF182000D9
:100030009D03200000000000BD182000C118200012
:10004000F7012000F7012000F7012000F701200050
:10005000F7012000F7012000F7012000F701200040
:10006000F7012000F7012000F7012000F701200030
:10007000F7012000F7012000F7012000F701200020
:10008000F7012000F7012000F7012000F701200010
:10009000F7012000F7012000F7012000F701200000
:1000A000F7012000F7012000F7012000F7012000F0
:1000B000F7012000F7012000F7012000F7012000E0
:1000C000F7012000F7012000F7012000F7012000D0
:1000D000F7012000F7012000F7012000F7012000C0
:1000E000A1032000F7012000F7012000F701200004
:1000F000F7012000F7012000F7012000F7012000A0
:10010000F7012000F7012000F7012000F70120008F
:10011000F7012000F7012000F7012000F70120007F
:10012000F7012000F7012000F7012000F70120006F
:10013000F7012000F7012000F7012000F70120005F
:10014000F7012000F7012000F7012000F70120004F
:10015000F7012000ED022000F7012000B519200072
:10016000F7012000F7012000F7012000F70120002F
:10017000F7012000F7012000F7012000F70120001F
:10018000F7012000F7012000F7012000F70120000F
:10019000F7012000F7012000F7012000F7012000FF
:1001A000F7012000F7012000F7012000F7012000EF
:1001B000F7012000F7012000F7012000F7012000DF
:1001C000F7012000F7012000DFF80CD000F07AF8EA
:1001D000004800471D1C2000D0040020064880472E
:1001E00006480047FEE7FEE7FEE7FEE7FEE7FEE71C
:1001F000FEE7FEE7FEE7FEE761192000C9012000E7
:100200002DE9F05F0546002092469B46884606464B
:10021000814640241BE0284641464746224600F0DE
:1002200041F853465A46C01A914110D31146184618
:10023000224600F028F82D1A67EB01084F462246A7
:100240000120002100F01FF817EB00094E41201E8D
:10025000A4F10104DFDC484631462A464346BDE8A6
:10026000F09FD2B201E000F8012B491EFBD270478B
:100270000022F6E710B513460A4604461946FFF772
:10028000F0FF204610BD202A04DB203A00FA02F1DC
:10029000002070479140C2F1200320FA03F3194374
:1002A00090407047202A04DB203A21FA02F0002116
:1002B000704721FA02F3D040C2F120029140084376
:1002C00019467047064C074D06E0E06840F0010310
:1002D00094E8070098471034AC42F6D3FFF778FF54
:1002E000541D2000741D2000FEE70000014800F0AE
:1002F00079B800006C00002001681823CAB2103AD7
:10030000B2FBF3F2054B6FF30901032A9B5CC36553
:1003100000D9091D8165084670470000341D200082
:1003200010B583694FF0C074826A0146002053B152
:10033000B3F5005F15D072B1012A0CD0022A0AD0A1
:10034000032A09D104E01AB1012A06D0022A03D1F6
:10035000C96AC90100D5012010BDC96AA142FAD0FD
:1003600010BD002AF7D0012AF2D0022AF3D0032AC6
:10037000F3D010BD30B50468256825F480252560CC
:10038000046863608368402B036803D09960006849
:10039000C26030BD9A600068C16030BD7047000027
:1003A00005490878032801D2401C00E000200870AD
:1003B0004FF4006000F0AAB900000020704790F8E8
:1003C0003510022903D080214165012070470521A5
:1003D00080F835100068016821F0010101600020FB
:1003E000704700002DE9F84304464FF00009644BC4
:1003F0000820CDF800904FF41652A56D94F85C10CB
:100400001B682E68B3FBF2F700FA01F131420FD0FE
:1004100021680A6852070BD50A6822F004020A60B4
:1004200094F85C108840A860606D40F00100606541
:1004300094F85C104FF0010808FA01F0304208D03F
:1004400021684969090604D5A860606D40F0020082
:10045000606594F85C1004208840304208D0216820
:100460000968890704D5A860606D40F004006065E4
:1004700094F85C1010208840304218D02168096838
:10048000090714D5A86020680168490304D50068ED
:10049000000308D5A16C07E00168C90503D4016811
:1004A00021F008010160216C09B12046884794F8C9
:1004B0005C1020208840304231D021680968C9068C
:1004C0002DD5A86094F8350005282068016806D06D
:1004D000490347D5006800031DD4616C1CE021F07E
:1004E000160101602068416921F080014161206CA2
:1004F00008B9A06C20B12068016821F008010160F2
:1005000094F85C303F229A40AA6084F8349084F8D2
:100510003580216D1FE0E16B09B120468847606D91
:1005200000282BD0606DC00714D0052084F835005A
:100530002068016821F0010101600098401C0090D2
:10054000B84203D820680068C007F6D184F8349018
:1005500084F83580E16C002910D001B02046BDE858
:10056000F04308470168C905D5D4036823F0100398
:10057000036084F8349084F83580CCE7BDE8F883D4
:10058000180000202DE9F047044600F0C3F90546A5
:1005900064B14FF0000984F83490022184F83510DA
:1005A0002068016821F0010101600EE00120BDE832
:1005B000F08700BF00F0AEF9401B052805D92021C7
:1005C0006165032084F83500F1E720680068C00702
:1005D000F0D1D4E90020D4E90251D4E9043C284305
:1005E00004F1180519430843116895E8E00140EA51
:1005F0000C001C4B2843194040EA060040EA070063
:10060000B8F1040F40EA010003D1D4E90B131943F8
:100610000843106020680126656A4069042D20F0B7
:10062000070045EA00050CD1D4E90A01054341B1B0
:100630002046FFF775FE20B14020606584F83560E4
:10064000B4E7206845612046FFF756FE94F85C3019
:100650003F229A408260C4F8549084F835600020AC
:10066000A5E700003F8010F02DE9F041044690F826
:10067000340000250128A66D0ED094F835C001275E
:10068000002084F83470BCF1010F07D0022584F8F3
:1006900034002846BDE8F0810220FBE7022784F8F9
:1006A000357060652046FFF765FE94F85C103F20CA
:1006B0008840B0602068016841F016010160206840
:1006C000416941F080014161206C20B120680168DE
:1006D00041F0080101602068016841F001010160FA
:1006E000D7E7000070B5044600F014F90546601C19
:1006F00002D004480078044400F00CF9401BA042EA
:10070000FAD370BD0C00002070470000044910B5FA
:100710000A68024202D00860FFF7F6FF10BD000031
:10072000143C01402DE9F84FDFF89CE100224FF026
:1007300001084FF0030B4FF00F0A00BF0B6808FAD7
:1007400002F42340A34271D14D68022D01D0122D35
:100750000FD1D5080E69570700EB8505A9462D6A0C
:10076000FF0E0AFA07FCBE4025EA0C052E43C9F825
:1007700020600F79550006680BFA05FC07F00307A7
:1007800026EA0C06AF40374307604E68012E05D0BD
:10079000022E03D0112E01D0122E0ED18668CF6802
:1007A00026EA0C06AF403743876046680F79A643B8
:1007B000C7F30017974037434760C4688E6824EA40
:1007C0000C04AE402643C6604C68E40075D53F4C2F
:1007D000256845F480452560246822F003069507C6
:1007E00004F4804400943A4C2D0F2644D6F808486F
:1007F000DFF8E0C00AFA05F7604524EA070401D1F2
:1008000000272EE0344FB84201D1012729E0334FB1
:10081000B84201D1022724E0314FB84201D1032769
:100820001FE0304FB84202D104271AE045E02E4FB6
:10083000B84201D1052714E02C4FB84201D1062758
:100840000FE02B4FB84201D107270AE0294FB842E9
:1008500001D1082705E0284FB84201D1092700E05F
:100860000A27AF4027437546C6F808784E68DEF879
:100870000040F60324EA030400D51C43124E2C600A
:10088000361D4D683468AD0324EA030400D51C43CB
:100890000D4F346008374D683C68ED0224EA0304CC
:1008A00000D51C43084D3C600C354E682C68B602E0
:1008B00024EA030400D51C432C60521C102AFFF4C8
:1008C0003DAFBDE8F88F0000003C014044380240D5
:1008D00000300140000002400004024000080240D5
:1008E000000C0240001002400014024000180240B8
:1008F000001C02400020024000240240426931EA0C
:10090000020200D10904816170470AB18161704718
:100910000904FBE701488068704700000C000020D4
:100920000248816802781144816070470C00002001
:10093000094810B5016841F400710160016841F493
:1009400080710160032000F071F8002000F006F8CB
:1009500000F024F8002010BD003C024070B50D4DA1
:1009600004464FF47A700C4A29781268B0FBF1F013
:10097000B2FBF0F000F0A4FD48B9102C07D2002221
:100980002146501E00F032F800206C6070BD01203E
:1009900070BD00000C000020180000200B4882B041
:1009A000016841F080510160006800F080500090C3
:1009B0000648001D016841F480410160006800F4B0
:1009C00080400090072002B000F030B8403802406C
:1009D000002809DB410900F01F028900012001F114
:1009E000E0219040C1F80001704700000E4BF0B4C8
:1009F0001B680D46C3F30223C3F10706042E00D97A
:100A00000426191D072901D2002300E0DB1E012462
:100A100004FA06F19C40491E2940641E9940144086
:100A20002143F0BC01F0D9B80CED00E0064900F01C
:100A3000070210B54FF6FF040868044B204040EA57
:100A400002201843086010BD0CED00E00000FA051C
:100A50001848F8B5016841F0805101600068164CF3
:100A600000F080500090206840F480302060FFF754
:100A700051FF4FF47A76054605E000BFFFF74AFFC5
:100A8000401BB0420FD86068C003F7D5206840F41F
:100A900000302060FFF73EFF054606E0FFF73AFF13
:100AA000401BB04201D90320F8BD60688003F5D532
:100AB0000020F8BD40380240007000402DE9F84F9A
:100AC00004460078DFF824944FF000063746C0074C
:100AD0000ED0D9F8001021F40001C9F80010D9F89F
:100AE0000010626B1143C9F80010606B00B9012659
:100AF000FE4D2068843500030ED5E16B286820F494
:100B0000401008432860E06BB0F5801F01D010B1A1
:100B100002E0012600E0012720684FF4800BC002AC
:100B20000CD5216C286820F4400008432860206C14
:100B3000584501D1012601E000B901272068C10113
:100B400000D50126800666D5E8483830016841F0B6
:100B5000805101600068DFF898A300F08050009099
:100B6000DAF8001041F48071CAF80010FFF7D2FEE5
:100B7000804605E0FFF7CEFEA0EB080064287DD894
:100B8000DAF80000C005F5D5DFF8608308F16808E1
:100B9000D8F8000010F440702AD0218E01F4407182
:100BA000814225D0D8F80010D8F8002021F44071F7
:100BB00042F48032C8F80020D8F8002022F48032B5
:100BC000C8F80020C8F80010D8F80000C0070FD0FF
:100BD000FFF7A0FE824607E0FFF79CFEA0EB0A01AC
:100BE00041F288308142CAD8D8F800008007F3D596
:100BF000206BC0F3012103297ED0D9F8001021F425
:100C0000F811C9F80010228ED8F80010C2F30B02B8
:100C10001143C8F800102078C00607D5286820F0D6
:100C2000807028602868A16B084328602188AF483D
:100C30008830490405D5626E016821F440311143C2
:100C400001602188090405D5A26E016821F44021C4
:100C5000114301602168C90305D5E26E016821F4E2
:100C60004011114301602168890305D5226F016895
:100C700021F4400111430160217800E018E14906A8
:100C800005D5626C016821F00301114301602178F0
:100C9000090605D5A26C016821F00C011143016021
:100CA0002188C90505D5E26C016821F030011143A6
:100CB00001602188890505D5226D016821F0C001F8
:100CC000114301602188490505D5626D016821F451
:100CD0004071114301602188090505D5A26D0168A5
:100CE00021F44061114301602188C90407D5E26DF8
:100CF000016821F4405100E041E011430160218886
:100D0000890405D5226E016821F440411143016038
:100D10002168490205D5A26F016821F08061114365
:100D2000016021684FF0006A890209D5E26F01680D
:100D300021F0006111430160E16F514500D10127AD
:100D400021680A0700D50127490305D5626F0168AC
:100D500021F04071114301602168090206D5D4F8E1
:100D60008020016821F0805111430160DFF88491F7
:100D7000012E0ED02068B0F1007F0AD08FE05E4ACD
:100D8000D9F80030104023F4F8120243C9F80020CB
:100D900039E7D9F800004E4620F08060C9F800001D
:100DA000FFF7B8FD804605E0FFF7B4FDA0EB0800B3
:100DB00064287DD830680001F6D421784B487C3017
:100DC000C90712D0616B81B9237A62680168D0F8D3
:100DD00000C09201C1F3014142EA0142CCF3036138
:100DE00042EA016141EA0371016021680A0303D507
:100DF000E26BB2F5801F04D0C9021AD5216C5945A7
:100E000017D16368016894F80CC002689B01C1F3B4
:100E1000014143EA0141C2F3027241EA0C6141EA35
:100E2000027101602968626A21F01F01521E11439C
:100E300029602168C90110D5238A62680168D0F849
:100E400000C09201C1F3036142EA034242EA016237
:100E5000CCF3027142EA01710160216889010CD56D
:100E60006168228A237B94F808C0890141EA024123
:100E700041EA036141EA0C7101603168B04641F01A
:100E800080613160FFF746FD064604E0FFF742FD52
:100E9000801B64280CD8D8F800000001F6D56FB389
:100EA000D9F800004E4620F08050C9F8000000E05C
:100EB00079E0FFF72FFD074605E000BFFFF72AFDA9
:100EC000C01B64286FD83068C0438000F6D507483F
:100ED000216880300A0301D5E26B1AB1C90225D519
:100EE000216C19BB63690168277E08E0083802405D
:100EF0000070004000380240FFFCFF0F5AE002681B
:100F0000C1F301419B0143EA0143C2F3027143EA89
:100F1000076242EA0171016029686FF0FF03A26A6B
:100F200021F4F85103EB0222114329602168890260
:100F300012D5E16F51450FD1238C626901680768B2
:100F40009201C1F3036142EA034242EA0162C7F33C
:100F5000027142EA017101602178090716D56169C1
:100F60000268D0F800C08B01277FC2F30362CCF384
:100F7000014143EA014141EA026141EA077101602E
:100F80002868E16A20F4403008432860306840F067
:100F900080503060FFF7BEFC044607E0FFF7BAFC64
:100FA000001B642802D90320BDE8F88F3068C043D5
:100FB0008000F3D40020F7E72DE9F04705000F4645
:100FC00063D0444E306800F00F00B84209D2306858
:100FD00020F00F0038433060306800F00F00B84256
:100FE00053D128683C4C810712D5400703D52068AF
:100FF00040F4E05020602878000703D5206840F4D2
:1010000060402060A968206820F0F000084320605C
:101010002878C0072AD0304968680839012810D0DC
:101020000968022810D0890700292EDA216821F0EA
:10103000030101432160FFF76DFC804641F28839CE
:101040000DE009688903EFE78901EDE7FFF762FC2E
:10105000A0EB0801494502D90320BDE8F087686884
:10106000216801F00C01B1EB800FEFD1306800F086
:101070000F00B8420BD9306820F00F0038433060C1
:10108000306800F00F00B84201D00120E5E7287871
:10109000400705D5E968206820F4E0500843206047
:1010A0002878000706D52869216821F4604141EAC3
:1010B000C000206000F036F82168084AC1F303112F
:1010C000515CC840064908600020FFF747FC00203B
:1010D000C3E70000003C0240083802403C1D2000ED
:1010E000180000200449054809680068044AC1F353
:1010F0008221515CC8407047083802401800002027
:101100004C1D20000449054809680068044AC1F3E1
:101110004231515CC8407047083802401800002036
:101120004C1D2000154910B51548096811F00C0236
:1011300013D01449042A0FD0082A0ED10F4C241FB3
:101140002268236802F03F025B0207D52068C0F3E3
:101150008810A0FB010106E0084610BD2168C1F31C
:101160008811A1FB00010023FFF74AF82168C1F3B1
:101170000141491C4900B0FBF1F010BD08380240A4
:101180000024F40040787D012DE9F84F05004FF070
:1011900000076ED02878DFF81C93A9F1040AC00775
:1011A000AAF104044CD0D9F800104846C1F38101DB
:1011B000012908D00068C0F3810002280AD1DAF8BA
:1011C0000000400206D52068800339D568680028F1
:1011D000DFD035E06868B0F5803F0BD010B1B0F5D6
:1011E000A02F11D0206820F480302060206820F4E7
:1011F000802002E0206840F480302060686890B170
:10120000FFF788FB06460AE0206840F48020206053
:10121000F0E700BFFFF77EFB801B642872D82068D0
:101220008003F7D50CE0FFF775FB064605E000BF2D
:10123000FFF770FB801B6428F0D820688003F7D488
:101240002878800742D5D9F80010484611F00C0FD5
:1012500008D00068C0F3810002280BD1DAF8000042
:10126000400207D42068800718D5E868012800D11B
:1012700014E01CE1E8680028206817D040F0010065
:101280002060FFF747FB064605E000BFFFF742FB83
:10129000801B0228C2D820688007F7D528692168FA
:1012A00021F0F80141EAC00020600FE020F00100C9
:1012B0002060FFF72FFB064605E000BFFFF72AFB83
:1012C000801B02281ED820688007F7D428780007E2
:1012D00029D5784869696C3000298046016812D0A8
:1012E00041F001010160FFF715FB064605E000BF74
:1012F000FFF710FB801B022804D8D8F800008007F5
:10130000F6D510E089E021F001010160FFF702FB52
:10131000064604E0FFF7FEFA801B02287DD8D8F8C5
:1013200000008007F6D4287840076BD5DFF8848169
:1013300008F13808D8F80000C0000BD4D8F8001025
:1013400041F08051C8F80010D8F80000012700F0E3
:101350008050009058480168C90512D4016883463E
:1013600041F480710160FFF7D5FA064605E000BF41
:10137000FFF7D0FA801B64284FD8DBF80000C005C7
:10138000F6D54C4EA868683601280AD008B1052861
:1013900011D0306820F001003060306820F0040087
:1013A00002E0306840F001003060A868A0B1FFF7AB
:1013B000B1FA83460CE0306840F004003060F0E79A
:1013C000FFF7A8FAA0EB0B0141F28830814266D802
:1013D00030688007F4D50EE0FFF79CFA834607E0FB
:1013E000FFF798FAA0EB0B0141F28830814256D802
:1013F00030688007F4D42FB1D8F8001021F0805164
:10140000C8F80010A869C8B3D9F80010C1F3810169
:1014100002294CD00228206800E040E020F08070D3
:10142000206003D0FFF776FA05463BE0FFF772FA3B
:10143000064604E0FFF76EFA801B02282FD82068CA
:101440008001F7D4D5E90962D5E907011B4B57089C
:1014500095F82C20084303EB074343EA8611084321
:1014600040EA026040F00050CAF80000206840F0F6
:1014700080702060FFF74EFA054606E015E000BFD9
:10148000FFF748FA401B022809D820688001F7D5E9
:101490000BE000BFFFF73EFA401B022802D90320F1
:1014A000BDE8F88F20688001F4D40020F8E701201F
:1014B000F6E7000008380240007000400000FFFF1F
:1014C000401EB0F1807F10B501D3012010BD4FF058
:1014D000E02460610F21601700F07FFB0020A06115
:1014E0000721216110BD70472DE9F04102680025F8
:1014F000012604460827D0691168936810F00F0F81
:1015000064D003F0010C01F4907E5CEA0E0E72D000
:101510005FEAC07E07D05FEAC15E04D51662E26C66
:1015200042F00102E264820708D5DA0706D0266895
:1015300002223262E26C42F00402E264420708D501
:10154000DA0706D0236804221A62E26C42F0020233
:10155000E26402070AD501F0200252EA0C0205D02B
:1015600022681762E26C42F00802E264E26C002A30
:1015700039D0800605D5880603D5A16B09B1204670
:1015800088472168E06C896800F00800490600D4AB
:1015900058B3204600F052FA2068816849061FD5EA
:1015A000816821F040018160206C18B10565206CD4
:1015B000FEF705FF606C98B126490165606CFEF787
:1015C000FEFE00280FD0606C016D06E0830612D588
:1015D0008B0610D5A16B13E02046BDE8F04108470B
:1015E0002046FFF780FFBDE8F0812046FFF77BFF34
:1015F000E564F8E7FFE7030605D50B0603D5E16BC5
:101600000029E9D1EFE74006EDD54806EBD5116892
:10161000204621F04001116021688A6822F0010211
:101620008A60E56394F84910122907D0418E002999
:10163000D9D180F8496000F0F5F8D4E701680F626D
:1016400001688A6942F008028A6180F8496000F006
:10165000E7F8C8E7C119200038B5040004D094F8B1
:101660004900002510B106E0012038BD204684F86D
:10167000485000F037F8022084F8490020680168DB
:1016800021F001010160204600F0E6F90128ECD0CC
:101690002068416821F4804141602068816821F020
:1016A0002A0181602068016841F001010160E56460
:1016B000FFF730F903462068006800070BD54FF4A8
:1016C0007A700090002220464FF4001100F05EFA7C
:1016D00008B1032038BD0121284684F8491084F858
:1016E000485038BD70B586B0064614216846FEF7EE
:1016F000BFFD2249306888423ED12148016841F04F
:1017000020010160006800F0200005901C4814389A
:10171000016841F00401016000680025022100F029
:10172000040005904FF4E07008238DE823000322A5
:101730001448CDE903236946FEF7F4FF124C40221A
:1017400012484FF0206184E8270003152046C4E9C1
:101750000435A561E56125626562FEF713FF08B1F6
:10176000FEF72CFE346404220021A6634720FFF715
:101770003DF94720FFF72CF906B070BD0014014079
:1017800044380240000802406C000020A06402407F
:101790002DE9F041044690F84900012838D141B3C1
:1017A0003AB394F84800012832D022850126628598
:1017B0000025206C1223616284F84860E56484F897
:1017C0004930C8B1134BC363236C13481864236CAE
:1017D0001248D86413462068276C00F12802384666
:1017E000FEF742FF40B11020E06484F8485084F8CE
:1017F00049600120BDE8F08121684020086284F83A
:1018000048502068816841F0800181600020F1E744
:101810000220EFE7F7192000331A2000D119200029
:10182000704770477047FEE730B587B014216846AF
:10183000FEF71EFD1D48016841F0010101600168CD
:1018400001F001010591016841F4807101600168B6
:1018500001F480710591016841F0040101600068A4
:101860000022134D022100F0040005902846FFF7E6
:101870004CF800210220009001242846CDE90141C6
:1018800003916946FEF74EFF0A49E0028DE8130016
:1018900069462846FEF746FF032200212820FFF76D
:1018A000A5F82820FFF794F807B030BD3038024083
:1018B0000020024000001110FEE77047704770479B
:1018C000FFF72EB830B5B3B0302121A8FEF7D0FC19
:1018D00014212DA8FEF7CCFC84216846FEF7C8FC35
:1018E0001D48016841F080510160006800F080509F
:1018F00032901A48016841F44041016000680025B7
:101900000DF1A40C00F440403290022421941021E7
:101910000822D823CDE927458CE81C0001202C940F
:10192000CDE9240121A8FFF72FFCFFF791F8E2028F
:101930004FF4A0510F20CDE930122DAA072182E8E3
:1019400031002DA8FFF738FBA002169500906846DD
:10195000FFF7B4F833B030BD4038024000700040AB
:10196000104A30B51048146800210F4B44F470043D
:101970001460083305680D4A0D4C45F001050560FB
:1019800019600368051D1340074A03600C322C6080
:101990000568E305034C25F480250560803C116053
:1019A000236030BD88ED00E000380240FFFFF6FE06
:1019B000103000240148FFF797BD00001C000020F4
:1019C00010B5806B002141864185FFF78CFD10BD6D
:1019D00010B5846B002161866185204600F02EF8E9
:1019E000E16C012041F01001E16484F849002046D7
:1019F000FFF779FD10BD10B5C169806BB1F5807F2F
:101A000010D00021418590F84910122909D10168B0
:101A10008A6822F080028A600068016841F0400113
:101A2000016010BD90F849101229FAD1FFF7F8FEB5
:101A300010BD10B5806BFFF7F4FE10BD01680122E8
:101A40000B6823F4F0730B6001688B6823F00103CB
:101A50008B6080F8492070472DE9F0470446026802
:101A600081680025424E4FF40068D4E90430DFF865
:101A700004C11943136840F400473F4839434FF607
:101A8000EF7933400B4313602368A169D4E90776EB
:101A9000E26839435F6846F4006631430A4327F43D
:101AA0007C5111435960216861450AD1006810F0EA
:101AB000030035D001284DD0022848D0032850D14A
:101AC0004BE02E4A91420AD1006810F00C0024D05D
:101AD00004283FD008283AD00C2842D13DE0284ABB
:101AE00091420AD1006810F0300016D0102831D091
:101AF00020282CD0302834D12FE0224A914230D1F6
:101B0000006810F440600BD0B0F5806F22D04045E3
:101B10001DD0B0F5406F24D11FE0FFF7E3FA01E0DC
:101B2000FFF7F0FA0146D4F80400490001EB500138
:101B3000B1FBF0F0A0F110024A4512D821684FF62F
:101B4000F073C0F3420218401043C8600AE00E4927
:101B50006068EBE7FFF7E6FAE4E760684FF480318E
:101B6000E4E701250020A063E0632846BDE8F08794
:101B7000F369FFEF0010014090380240004400403C
:101B800000480040001401400048E8012DE9F04100
:101B9000984617460E460446069D08E0681C06D087
:101BA000FEF7B8FEA0EB0800A8420BD855B120689C
:101BB000C06936EA00000DD00020B842EED0002007
:101BC000BDE8F081012184F84910002084F8480024
:101BD0000320F5E70120F0E7FEE7090700284FEAB8
:101BE000116104DB00F1E02080F80014704700F080
:101BF0000F0000F1E02080F8141D704702E008C8D3
:101C0000121F08C1002AFAD170477047002001E076
:101C100001C1121F002AFBD17047000008B5BFF3B5
:101C20004F8FBFF36F8F3C4800240460BFF34F8F8A
:101C3000BFF36F8F3949086840F400300860BFF384
:101C40004F8FBFF36F8F354870300460BFF34F8FF5
:101C5000001F43F6FF7C00682F4D1035C0F34E3255
:101C6000C0F3C9030CEA4216184600BF46EA807763
:101C70002F60401EFAD2521EF4D2BFF34F8F086875
:101C800040F480300860BFF34F8FBFF36F8FFEF7D3
:101C90004FFEFFF717FEFFF7C7FD2148016841F42B
:101CA0008001016000680422002100F4800000909F
:101CB0004520FEF79BFE4520FEF78AFE1A480C22BF
:101CC000184B4FF4E1310360C0E90114C460C0E96E
:101CD00004428461C4610462FFF7BEFC134C144DDE
:101CE000217801290AD0022913D000222846022196
:101CF000FEF70BFEC820FEF7F5FCF1E702212846AF
:101D0000FEF7FCFD09490A220748491CFFF740FD80
:101D1000F0E70122EAE7000050EF00E014ED00E0F8
:101D200030380240001401401C0000200000002058
:101D300000200240000610160006101600000000E9
:101D4000000000000102030406070809000000006B
:101D500001020304741D2000000000201C0000008C
:101D6000FC1B2000901D20001C000020B40400007B
:101D70000C1C2000000102030405060708092000CE
:101D80000100000010000000000000000024F4002A
:04000005002001C90D
:00000001FF
