:020000040020DA
:1000000018040020DD012000530C2000CF0B20003D
:10001000510C2000E9022000390D200000000000F2
:10002000000000000000000000000000570C20004D
:10003000EB02200000000000550C2000590C2000AD
:10004000F7012000F7012000F7012000F701200050
:10005000F7012000F7012000F7012000F701200040
:10006000F7012000F7012000F7012000F701200030
:10007000F7012000F7012000F7012000F701200020
:10008000F7012000F7012000F7012000F701200010
:10009000F7012000F7012000F7012000F701200000
:1000A000F7012000F7012000F7012000F7012000F0
:1000B000F7012000F7012000F7012000F7012000E0
:1000C000F7012000F7012000F7012000F7012000D0
:1000D000F7012000F7012000F7012000F7012000C0
:1000E000ED022000F7012000F7012000F7012000B9
:1000F000F7012000F7012000F7012000F7012000A0
:10010000F7012000F7012000F7012000F70120008F
:10011000F7012000F7012000F7012000F70120007F
:10012000F7012000F7012000F7012000F70120006F
:10013000F7012000F7012000F7012000F70120005F
:10014000F7012000F7012000F7012000F70120004F
:10015000F7012000F7012000F7012000F70120003F
:10016000F7012000F7012000F7012000F70120002F
:10017000F7012000F7012000F7012000F70120001F
:10018000F7012000F7012000F7012000F70120000F
:10019000F7012000F7012000F7012000F7012000FF
:1001A000F7012000F7012000F7012000F7012000EF
:1001B000F7012000F7012000F7012000F7012000DF
:1001C000F7012000F7012000DFF80CD000F07AF8EA
:1001D000004800477D0D2000180400200648804795
:1001E00006480047FEE7FEE7FEE7FEE7FEE7FEE71C
:1001F000FEE7FEE7FEE7FEE7E50C2000C901200070
:100200002DE9F05F0546002092469B46884606464B
:10021000814640241BE0284641464746224600F0DE
:1002200041F853465A46C01A914110D31146184618
:10023000224600F028F82D1A67EB01084F462246A7
:100240000120002100F01FF817EB00094E41201E8D
:10025000A4F10104DFDC484631462A464346BDE8A6
:10026000F09FD2B201E000F8012B491EFBD270478B
:100270000022F6E710B513460A4604461946FFF772
:10028000F0FF204610BD202A04DB203A00FA02F1DC
:10029000002070479140C2F1200320FA03F3194374
:1002A00090407047202A04DB203A21FA02F0002116
:1002B000704721FA02F3D040C2F120029140084376
:1002C00019467047064C074D06E0E06840F0010310
:1002D00094E8070098471034AC42F6D3FFF778FF54
:1002E000440E2000640E2000FEE7704705490878A0
:1002F000032801D2401C00E0002008704FF4006089
:1003000000F016B80000002070B5044600F014F9A3
:100310000546601C02D004480078044400F00CF943
:10032000401BA042FAD370BD0400002070470000BB
:10033000044910B50A68024202D00860FFF7F6FFD0
:1003400010BD0000143C01402DE9F84FDFF89CE19E
:1003500000224FF001084FF0030B4FF00F0A00BFCF
:100360000B6808FA02F42340A34271D14D68022DB4
:1003700001D0122D0FD1D5080E69570700EB850566
:10038000A9462D6AFF0E0AFA07FCBE4025EA0C05B5
:100390002E43C9F820600F79550006680BFA05FC5A
:1003A00007F0030726EA0C06AF40374307604E68A4
:1003B000012E05D0022E03D0112E01D0122E0ED107
:1003C0008668CF6826EA0C06AF40374387604668E8
:1003D0000F79A643C7F30017974037434760C468B7
:1003E0008E6824EA0C04AE402643C6604C68E400E4
:1003F00075D53F4C256845F480452560246822F07A
:100400000306950704F4804400943A4C2D0F2644CB
:10041000D6F80848DFF8E0C00AFA05F7604524EA94
:10042000070401D100272EE0344FB84201D1012743
:1004300029E0334FB84201D1022724E0314FB842BE
:1004400001D103271FE0304FB84202D104271AE040
:1004500045E02E4FB84201D1052714E02C4FB84299
:1004600001D106270FE02B4FB84201D107270AE040
:10047000294FB84201D1082705E0284FB84201D1E1
:10048000092700E00A27AF4027437546C6F80878D9
:100490004E68DEF80040F60324EA030400D51C434E
:1004A000124E2C60361D4D683468AD0324EA0304F7
:1004B00000D51C430D4F346008374D683C68ED0291
:1004C00024EA030400D51C43084D3C600C354E68FB
:1004D0002C68B60224EA030400D51C432C60521C8D
:1004E000102AFFF43DAFBDE8F88F0000003C01404A
:1004F0004438024000300140000002400004024045
:1005000000080240000C02400010024000140240AB
:1005100000180240001C024000200240002402405B
:10052000426931EA020200D10904816170470AB1CF
:10053000816170470904FBE701488068704700004B
:1005400004000020024881680278114481607047ED
:1005500004000020094810B5016841F400710160F1
:10056000016841F480710160032000F071F80020FF
:1005700000F006F800F024F8002010BD003C024016
:1005800070B50D4D04464FF47A700C4A2978126804
:10059000B0FBF1F0B2FBF0F000F006FB48B9102C14
:1005A00007D200222146501E00F032F800206C6075
:1005B00070BD012070BD000004000020100000206C
:1005C0000B4882B0016841F080510160006800F082
:1005D000805000900648001D016841F48041016090
:1005E000006800F480400090072002B000F030B8AE
:1005F00040380240002809DB410900F01F02890051
:10060000012001F1E0219040C1F800017047000095
:100610000E4BF0B41B680D46C3F30223C3F107066B
:10062000042E00D90426191D072901D2002300E059
:10063000DB1E012404FA06F19C40491E2940641E79
:10064000994014402143F0BC00F077BB0CED00E072
:10065000064900F0070210B54FF6FF040868044B86
:10066000204040EA02201843086010BD0CED00E075
:100670000000FA051848F8B5016841F080510160A2
:100680000068164C00F080500090206840F48030E4
:100690002060FFF751FF4FF47A76054605E000BF72
:1006A000FFF74AFF401BB0420FD86068C003F7D580
:1006B000206840F400302060FFF73EFF054606E06A
:1006C000FFF73AFF401BB04201D90320F8BD606834
:1006D0008003F5D50020F8BD40380240007000408E
:1006E0002DE9F04705000F4663D0444E306800F016
:1006F0000F00B84209D2306820F00F003843306054
:10070000306800F00F00B84253D128683C4C810794
:1007100012D5400703D5206840F4E05020602878C7
:10072000000703D5206840F460402060A968206875
:1007300020F0F000084320602878C0072AD0304914
:1007400068680839012810D00968022810D0890784
:1007500000292EDA216821F0030101432160FFF70F
:10076000EBFE804641F288390DE009688903EFE726
:100770008901EDE7FFF7E0FEA0EB0801494502D94A
:100780000320BDE8F0876868216801F00C01B1EB37
:10079000800FEFD1306800F00F00B8420BD93068FD
:1007A00020F00F0038433060306800F00F00B8428E
:1007B00001D00120E5E72878400705D5E9682068E1
:1007C00020F4E050084320602878000706D5286907
:1007D000216821F4604141EAC000206000F016F871
:1007E0002168084AC1F30311515CC84006490860FA
:1007F0000020FFF7C5FE0020C3E70000003C0240D8
:1008000008380240340E200010000020154910B5B1
:100810001548096811F00C0213D01449042A0FD0AE
:10082000082A0ED10F4C241F2268236802F03F02D1
:100830005B0207D52068C0F38810A0FB010106E029
:10084000084610BD2168C1F38811A1FB00010023F7
:10085000FFF7D6FC2168C1F30141491C4900B0FBF8
:10086000F1F010BD083802400024F40040787D010A
:100870002DE9F84F05004FF000076ED02878DFF81B
:100880001C93A9F1040AC007AAF104044CD0D9F8BA
:1008900000104846C1F38101012908D00068C0F367
:1008A000810002280AD1DAF80000400206D520684B
:1008B000800339D568680028DFD035E06868B0F576
:1008C000803F0BD010B1B0F5A02F11D0206820F4DC
:1008D00080302060206820F4802002E0206840F40E
:1008E00080302060686890B1FFF726FE06460AE077
:1008F000206840F480202060F0E700BFFFF71CFE76
:10090000801B642872D820688003F7D50CE0FFF7BD
:1009100013FE064605E000BFFFF70EFE801B6428AD
:10092000F0D820688003F7D42878800742D5D9F81A
:100930000010484611F00C0F08D00068C0F3810089
:1009400002280BD1DAF80000400207D420688007A3
:1009500018D5E868012800D114E01CE1E8680028F7
:10096000206817D040F001002060FFF7E5FD064643
:1009700005E000BFFFF7E0FD801B0228C2D8206819
:100980008007F7D52869216821F0F80141EAC00005
:1009900020600FE020F001002060FFF7CDFD06464B
:1009A00005E000BFFFF7C8FD801B02281ED82068A5
:1009B0008007F7D42878000729D5784869696C3012
:1009C00000298046016812D041F001010160FFF763
:1009D000B3FD064605E000BFFFF7AEFD801B022811
:1009E00004D8D8F800008007F6D510E089E021F09F
:1009F00001010160FFF7A0FD064604E0FFF79CFD42
:100A0000801B02287DD8D8F800008007F6D428780B
:100A100040076BD5DFF8848108F13808D8F800006A
:100A2000C0000BD4D8F8001041F08051C8F8001075
:100A3000D8F80000012700F0805000905848016865
:100A4000C90512D40168834641F480710160FFF743
:100A500073FD064605E000BFFFF76EFD801B6428AE
:100A60004FD8DBF80000C005F6D54C4EA8686836B4
:100A700001280AD008B1052811D0306820F0010003
:100A80003060306820F0040002E0306840F001007F
:100A90003060A868A0B1FFF74FFD83460CE03068D6
:100AA00040F004003060F0E7FFF746FDA0EB0B01DB
:100AB00041F28830814266D830688007F4D50EE074
:100AC000FFF73AFD834607E0FFF736FDA0EB0B0189
:100AD00041F28830814256D830688007F4D42FB173
:100AE000D8F8001021F08051C8F80010A869C8B3E8
:100AF000D9F80010C1F3810102294CD002282068E6
:100B000000E040E020F08070206003D0FFF714FD8B
:100B100005463BE0FFF710FD064604E0FFF70CFD3D
:100B2000801B02282FD820688001F7D4D5E90962FC
:100B3000D5E907011B4B570895F82C20084303EB18
:100B4000074343EA8611084340EA026040F0005040
:100B5000CAF80000206840F080702060FFF7ECFCCD
:100B6000054606E015E000BFFFF7E6FC401B022843
:100B700009D820688001F7D50BE000BFFFF7DCFC47
:100B8000401B022802D90320BDE8F88F20688001AD
:100B9000F4D40020F8E70120F6E70000083802400E
:100BA000007000400000FFFF401EB0F1807F10B5D4
:100BB00001D3012010BD4FF0E02460610F216017C8
:100BC00000F0BBF80020A0610721216110BDFEE705
:100BD00030B587B014216846FFF74AFB1948016811
:100BE00041F001010160016801F001010591016816
:100BF00041F48071016000680022134D022100F46D
:100C0000807005902846FFF792FC0021022000909A
:100C100001242846CDE9014103916946FFF794FB81
:100C20000A49E0028DE8130069462846FFF78CFB6D
:100C3000032200212820FFF7EBFC2820FFF7DAFC35
:100C400007B030BD303802400020024000001110D3
:100C5000FEE7704770477047FFF774BC30B593B03C
:100C600030216846FFF704FB14210CA8FFF700FBB6
:100C70001A48016841F080510160006800F080501E
:100C800011901748016841F4404101600068002557
:100C90000DF1200C0224009400F440401190082231
:100CA000D823CDE9064510218CE81C0001200B94C7
:100CB000CDE903016846FFF7DBFDFFF7DBFCE2024D
:100CC0004FF4A0510F20CDE90F120CAA072182E8A2
:100CD00031000CA8FFF704FD13B030BD40380240CE
:100CE00000700040104A30B51048146800210F4BC6
:100CF00044F470041460083305680D4A0D4C45F047
:100D00000105056019600368051D1340074A03606B
:100D10000C322C600568E305034C25F48025056042
:100D2000803C1160236030BD88ED00E00038024057
:100D3000FFFFF6FE10300024FEE7090700284FEA07
:100D4000116104DB00F1E02080F80014704700F02E
:100D50000F0000F1E02080F8141D704702E008C881
:100D6000121F08C1002AFAD170477047002001E025
:100D700001C1121F002AFBD170470000BFF34F8F43
:100D8000BFF36F8F274900200860BFF34F8FBFF379
:100D90006F8F254B196841F400311960BFF34F8FF5
:100DA000BFF36F8F204970310860BFF34F8F081F6A
:100DB00043F6FF7400681B4D1035C0F34E31C0F38D
:100DC000C90204EA4116104646EA80772F60401EA9
:100DD000FAD2491EF5D2BFF34F8F186840F4803025
:100DE0001860BFF34F8FBFF36F8FFFF7B3FBFFF7B1
:100DF00035FFFFF7EDFE0D4C0D4D217801290AD08E
:100E000002290DD0002228460221FFF790FBC820BE
:100E1000FFF77AFAF1E702212846FFF781FBF6E7B0
:100E20000122F0E750EF00E014ED00E000000020A8
:100E30000020024000000000000000000102030446
:100E400006070809640E20000000002014000000BE
:100E50005C0D2000780E2000140000200404000027
:100E60006C0D2000000000000100000010000000D8
:080E7000000000000024F40062
:04000005002001C90D
:00000001FF
